{
  "address": "0xcEfE2f72dC6E44aA5b5167224649Ab05CCf53981",
  "abi": [
    {
      "anonymous": false,
      "inputs": [
        {
          "indexed": true,
          "internalType": "address",
          "name": "account",
          "type": "address"
        },
        {
          "indexed": true,
          "internalType": "address",
          "name": "operator",
          "type": "address"
        },
        {
          "indexed": false,
          "internalType": "bool",
          "name": "approved",
          "type": "bool"
        }
      ],
      "name": "ApprovalForAll",
      "type": "event"
    },
    {
      "anonymous": false,
      "inputs": [
        {
          "indexed": false,
          "internalType": "uint8",
          "name": "version",
          "type": "uint8"
        }
      ],
      "name": "Initialized",
      "type": "event"
    },
    {
      "anonymous": false,
      "inputs": [
        {
          "indexed": true,
          "internalType": "address",
          "name": "creator",
          "type": "address"
        },
        {
          "indexed": true,
          "internalType": "uint256",
          "name": "id",
          "type": "uint256"
        },
        {
          "indexed": false,
          "internalType": "uint256",
          "name": "amount",
          "type": "uint256"
        },
        {
          "indexed": false,
          "internalType": "string",
          "name": "uri",
          "type": "string"
        },
        {
          "indexed": true,
          "internalType": "string",
          "name": "studioName",
          "type": "string"
        },
        {
          "indexed": false,
          "internalType": "address",
          "name": "customer",
          "type": "address"
        }
      ],
      "name": "Mint",
      "type": "event"
    },
    {
      "anonymous": false,
      "inputs": [
        {
          "indexed": true,
          "internalType": "address",
          "name": "previousOwner",
          "type": "address"
        },
        {
          "indexed": true,
          "internalType": "address",
          "name": "newOwner",
          "type": "address"
        }
      ],
      "name": "OwnershipTransferred",
      "type": "event"
    },
    {
      "anonymous": false,
      "inputs": [
        {
          "indexed": true,
          "internalType": "address",
          "name": "operator",
          "type": "address"
        },
        {
          "indexed": true,
          "internalType": "address",
          "name": "from",
          "type": "address"
        },
        {
          "indexed": true,
          "internalType": "address",
          "name": "to",
          "type": "address"
        },
        {
          "indexed": false,
          "internalType": "uint256[]",
          "name": "ids",
          "type": "uint256[]"
        },
        {
          "indexed": false,
          "internalType": "uint256[]",
          "name": "values",
          "type": "uint256[]"
        }
      ],
      "name": "TransferBatch",
      "type": "event"
    },
    {
      "anonymous": false,
      "inputs": [
        {
          "indexed": true,
          "internalType": "address",
          "name": "operator",
          "type": "address"
        },
        {
          "indexed": true,
          "internalType": "address",
          "name": "from",
          "type": "address"
        },
        {
          "indexed": true,
          "internalType": "address",
          "name": "to",
          "type": "address"
        },
        {
          "indexed": false,
          "internalType": "uint256",
          "name": "id",
          "type": "uint256"
        },
        {
          "indexed": false,
          "internalType": "uint256",
          "name": "value",
          "type": "uint256"
        }
      ],
      "name": "TransferSingle",
      "type": "event"
    },
    {
      "anonymous": false,
      "inputs": [
        {
          "indexed": false,
          "internalType": "string",
          "name": "value",
          "type": "string"
        },
        {
          "indexed": true,
          "internalType": "uint256",
          "name": "id",
          "type": "uint256"
        }
      ],
      "name": "URI",
      "type": "event"
    },
    {
      "inputs": [
        {
          "internalType": "address",
          "name": "account",
          "type": "address"
        },
        {
          "internalType": "uint256",
          "name": "id",
          "type": "uint256"
        }
      ],
      "name": "balanceOf",
      "outputs": [
        {
          "internalType": "uint256",
          "name": "",
          "type": "uint256"
        }
      ],
      "stateMutability": "view",
      "type": "function"
    },
    {
      "inputs": [
        {
          "internalType": "address[]",
          "name": "accounts",
          "type": "address[]"
        },
        {
          "internalType": "uint256[]",
          "name": "ids",
          "type": "uint256[]"
        }
      ],
      "name": "balanceOfBatch",
      "outputs": [
        {
          "internalType": "uint256[]",
          "name": "",
          "type": "uint256[]"
        }
      ],
      "stateMutability": "view",
      "type": "function"
    },
    {
      "inputs": [
        {
          "internalType": "uint256",
          "name": "",
          "type": "uint256"
        }
      ],
      "name": "creator",
      "outputs": [
        {
          "internalType": "address",
          "name": "",
          "type": "address"
        }
      ],
      "stateMutability": "view",
      "type": "function"
    },
    {
      "inputs": [],
      "name": "initialize",
      "outputs": [],
      "stateMutability": "nonpayable",
      "type": "function"
    },
    {
      "inputs": [
        {
          "internalType": "address",
          "name": "account",
          "type": "address"
        },
        {
          "internalType": "address",
          "name": "operator",
          "type": "address"
        }
      ],
      "name": "isApprovedForAll",
      "outputs": [
        {
          "internalType": "bool",
          "name": "",
          "type": "bool"
        }
      ],
      "stateMutability": "view",
      "type": "function"
    },
    {
      "inputs": [
        {
          "internalType": "uint256",
          "name": "amount_",
          "type": "uint256"
        },
        {
          "internalType": "string",
          "name": "tokenURI",
          "type": "string"
        },
        {
          "internalType": "string",
          "name": "studioName",
          "type": "string"
        },
        {
          "internalType": "address",
          "name": "customer",
          "type": "address"
        }
      ],
      "name": "mint",
      "outputs": [
        {
          "internalType": "bool",
          "name": "",
          "type": "bool"
        }
      ],
      "stateMutability": "nonpayable",
      "type": "function"
    },
    {
      "inputs": [],
      "name": "owner",
      "outputs": [
        {
          "internalType": "address",
          "name": "",
          "type": "address"
        }
      ],
      "stateMutability": "view",
      "type": "function"
    },
    {
      "inputs": [],
      "name": "renounceOwnership",
      "outputs": [],
      "stateMutability": "nonpayable",
      "type": "function"
    },
    {
      "inputs": [
        {
          "internalType": "address",
          "name": "from",
          "type": "address"
        },
        {
          "internalType": "address",
          "name": "to",
          "type": "address"
        },
        {
          "internalType": "uint256[]",
          "name": "ids",
          "type": "uint256[]"
        },
        {
          "internalType": "uint256[]",
          "name": "amounts",
          "type": "uint256[]"
        },
        {
          "internalType": "bytes",
          "name": "data",
          "type": "bytes"
        }
      ],
      "name": "safeBatchTransferFrom",
      "outputs": [],
      "stateMutability": "nonpayable",
      "type": "function"
    },
    {
      "inputs": [
        {
          "internalType": "address",
          "name": "from",
          "type": "address"
        },
        {
          "internalType": "address",
          "name": "to",
          "type": "address"
        },
        {
          "internalType": "uint256",
          "name": "id",
          "type": "uint256"
        },
        {
          "internalType": "uint256",
          "name": "amount",
          "type": "uint256"
        },
        {
          "internalType": "bytes",
          "name": "data",
          "type": "bytes"
        }
      ],
      "name": "safeTransferFrom",
      "outputs": [],
      "stateMutability": "nonpayable",
      "type": "function"
    },
    {
      "inputs": [
        {
          "internalType": "address",
          "name": "operator",
          "type": "address"
        },
        {
          "internalType": "bool",
          "name": "approved",
          "type": "bool"
        }
      ],
      "name": "setApprovalForAll",
      "outputs": [],
      "stateMutability": "nonpayable",
      "type": "function"
    },
    {
      "inputs": [
        {
          "internalType": "bytes4",
          "name": "interfaceId",
          "type": "bytes4"
        }
      ],
      "name": "supportsInterface",
      "outputs": [
        {
          "internalType": "bool",
          "name": "",
          "type": "bool"
        }
      ],
      "stateMutability": "view",
      "type": "function"
    },
    {
      "inputs": [
        {
          "internalType": "address",
          "name": "newOwner",
          "type": "address"
        }
      ],
      "name": "transferOwnership",
      "outputs": [],
      "stateMutability": "nonpayable",
      "type": "function"
    },
    {
      "inputs": [
        {
          "internalType": "uint256",
          "name": "id",
          "type": "uint256"
        }
      ],
      "name": "uri",
      "outputs": [
        {
          "internalType": "string",
          "name": "",
          "type": "string"
        }
      ],
      "stateMutability": "view",
      "type": "function"
    }
  ],
  "transactionHash": "0x054ad7ba7455b8f19bbbaf358d8cef38fb11302e0071c938ebdbcdd20df9322e",
  "args": [],
  "numDeployments": 1,
  "solcInputHash": "c2695069b11e38446c732aea691cd4f0",
  "bytecode": "0x608060405234801561001057600080fd5b50612169806100206000396000f3fe608060405234801561001057600080fd5b50600436106100e95760003560e01c8063715018a61161008c578063a22cb46511610066578063a22cb46514610201578063e985e9c514610214578063f242432a14610250578063f2fde38b1461026357600080fd5b8063715018a6146101e05780638129fc1c146101e85780638da5cb5b146101f057600080fd5b80632eb2c2d6116100c85780632eb2c2d6146101575780634340d4d51461016c5780634e1273f41461017f578063510b51581461019f57600080fd5b8062fdd58e146100ee57806301ffc9a7146101145780630e89341c14610137575b600080fd5b6101016100fc366004611828565b610276565b6040519081526020015b60405180910390f35b610127610122366004611880565b610324565b604051901515815260200161010b565b61014a6101453660046118a4565b610407565b60405161010b919061190d565b61016a610165366004611a6c565b6104a9565b005b61012761017a366004611b16565b61054b565b61019261018d366004611b94565b61063e565b60405161010b9190611c9a565b6101c86101ad3660046118a4565b60ca602052600090815260409020546001600160a01b031681565b6040516001600160a01b03909116815260200161010b565b61016a61077c565b61016a610790565b6097546001600160a01b03166101c8565b61016a61020f366004611cad565b6108c8565b610127610222366004611ce9565b6001600160a01b03918216600090815260666020908152604080832093909416825291909152205460ff1690565b61016a61025e366004611d1c565b6108d7565b61016a610271366004611d81565b610972565b60006001600160a01b0383166102f95760405162461bcd60e51b815260206004820152602a60248201527f455243313135353a2061646472657373207a65726f206973206e6f742061207660448201527f616c6964206f776e65720000000000000000000000000000000000000000000060648201526084015b60405180910390fd5b5060008181526065602090815260408083206001600160a01b03861684529091529020545b92915050565b60007fffffffff0000000000000000000000000000000000000000000000000000000082167fd9b67a260000000000000000000000000000000000000000000000000000000014806103b757507fffffffff0000000000000000000000000000000000000000000000000000000082167f0e89341c00000000000000000000000000000000000000000000000000000000145b8061031e57507f01ffc9a7000000000000000000000000000000000000000000000000000000007fffffffff0000000000000000000000000000000000000000000000000000000083161461031e565b600081815260cb6020526040902080546060919061042490611d9c565b80601f016020809104026020016040519081016040528092919081815260200182805461045090611d9c565b801561049d5780601f106104725761010080835404028352916020019161049d565b820191906000526020600020905b81548152906001019060200180831161048057829003601f168201915b50505050509050919050565b6001600160a01b0385163314806104c557506104c58533610222565b6105375760405162461bcd60e51b815260206004820152602e60248201527f455243313135353a2063616c6c6572206973206e6f7420746f6b656e206f776e60448201527f6572206f7220617070726f76656400000000000000000000000000000000000060648201526084016102f0565b61054485858585856109ff565b5050505050565b6000610555610ca0565b61056360c980546001019055565b600061056e60c95490565b905061057b818787610cfa565b600081815260ca6020526040902080547fffffffffffffffffffffffff000000000000000000000000000000000000000016331790556105bb8186610e05565b836040516105c99190611dd6565b604051809103902081336001600160a01b03167fe0bf9b08d112031de3bb6b97118ff72c052dd5f977cf7da31a98cdb848157be289898860405161060f93929190611df2565b60405180910390a461063283828860405180602001604052806000815250610e1d565b50600195945050505050565b606081518351146106b75760405162461bcd60e51b815260206004820152602960248201527f455243313135353a206163636f756e747320616e6420696473206c656e67746860448201527f206d69736d61746368000000000000000000000000000000000000000000000060648201526084016102f0565b6000835167ffffffffffffffff8111156106d3576106d3611920565b6040519080825280602002602001820160405280156106fc578160200160208202803683370190505b50905060005b84518110156107745761074785828151811061072057610720611e24565b602002602001015185838151811061073a5761073a611e24565b6020026020010151610276565b82828151811061075957610759611e24565b602090810291909101015261076d81611e50565b9050610702565b509392505050565b610784610ca0565b61078e6000610f4f565b565b600054610100900460ff16158080156107b05750600054600160ff909116105b806107ca5750303b1580156107ca575060005460ff166001145b61083c5760405162461bcd60e51b815260206004820152602e60248201527f496e697469616c697a61626c653a20636f6e747261637420697320616c72656160448201527f647920696e697469616c697a656400000000000000000000000000000000000060648201526084016102f0565b6000805460ff19166001179055801561085f576000805461ff0019166101001790555b61087760405180602001604052806000815250610fb9565b61087f61102d565b80156108c5576000805461ff0019169055604051600181527f7f26b83ff96e1f2b6a682f133852f6798a09c465da95921460cefb38474024989060200160405180910390a15b50565b6108d33383836110a0565b5050565b6001600160a01b0385163314806108f357506108f38533610222565b6109655760405162461bcd60e51b815260206004820152602e60248201527f455243313135353a2063616c6c6572206973206e6f7420746f6b656e206f776e60448201527f6572206f7220617070726f76656400000000000000000000000000000000000060648201526084016102f0565b6105448585858585611194565b61097a610ca0565b6001600160a01b0381166109f65760405162461bcd60e51b815260206004820152602660248201527f4f776e61626c653a206e6577206f776e657220697320746865207a65726f206160448201527f646472657373000000000000000000000000000000000000000000000000000060648201526084016102f0565b6108c581610f4f565b8151835114610a765760405162461bcd60e51b815260206004820152602860248201527f455243313135353a2069647320616e6420616d6f756e7473206c656e6774682060448201527f6d69736d6174636800000000000000000000000000000000000000000000000060648201526084016102f0565b6001600160a01b038416610af25760405162461bcd60e51b815260206004820152602560248201527f455243313135353a207472616e7366657220746f20746865207a65726f20616460448201527f647265737300000000000000000000000000000000000000000000000000000060648201526084016102f0565b3360005b8451811015610c32576000858281518110610b1357610b13611e24565b602002602001015190506000858381518110610b3157610b31611e24565b60209081029190910181015160008481526065835260408082206001600160a01b038e168352909352919091205490915081811015610bd85760405162461bcd60e51b815260206004820152602a60248201527f455243313135353a20696e73756666696369656e742062616c616e636520666f60448201527f72207472616e736665720000000000000000000000000000000000000000000060648201526084016102f0565b60008381526065602090815260408083206001600160a01b038e8116855292528083208585039055908b16825281208054849290610c17908490611e6a565b9250508190555050505080610c2b90611e50565b9050610af6565b50846001600160a01b0316866001600160a01b0316826001600160a01b03167f4a39dc06d4c0dbc64b70af90fd698a233a518aa5d07e595d983b8c0526c8f7fb8787604051610c82929190611e7d565b60405180910390a4610c9881878787878761136e565b505050505050565b6097546001600160a01b0316331461078e5760405162461bcd60e51b815260206004820181905260248201527f4f776e61626c653a2063616c6c6572206973206e6f7420746865206f776e657260448201526064016102f0565b600083815260ca60205260409020546001600160a01b031615610d5f5760405162461bcd60e51b815260206004820152601760248201527f546f6b656e20697320616c7265616479206d696e74656400000000000000000060448201526064016102f0565b81600003610daf5760405162461bcd60e51b815260206004820152601960248201527f416d6f756e742073686f756c6420626520706f7369746976650000000000000060448201526064016102f0565b6000815111610e005760405162461bcd60e51b815260206004820152601660248201527f746f6b656e5552492073686f756c64206265207365740000000000000000000060448201526064016102f0565b505050565b600082815260cb60205260409020610e008282611ef1565b6001600160a01b038416610e995760405162461bcd60e51b815260206004820152602160248201527f455243313135353a206d696e7420746f20746865207a65726f2061646472657360448201527f730000000000000000000000000000000000000000000000000000000000000060648201526084016102f0565b336000610ea585611572565b90506000610eb285611572565b905060008681526065602090815260408083206001600160a01b038b16845290915281208054879290610ee6908490611e6a565b909155505060408051878152602081018790526001600160a01b03808a1692600092918716917fc3d58168c5ae7397731d063d5bbf3d657854427343f4c083240f7aacaa2d0f62910160405180910390a4610f46836000898989896115bd565b50505050505050565b609780546001600160a01b038381167fffffffffffffffffffffffff0000000000000000000000000000000000000000831681179093556040519116919082907f8be0079c531659141344cd1fd0a4f28419497f9722a3daafe3b4186f6b6457e090600090a35050565b600054610100900460ff166110245760405162461bcd60e51b815260206004820152602b60248201527f496e697469616c697a61626c653a20636f6e7472616374206973206e6f74206960448201526a6e697469616c697a696e6760a81b60648201526084016102f0565b6108c581611718565b600054610100900460ff166110985760405162461bcd60e51b815260206004820152602b60248201527f496e697469616c697a61626c653a20636f6e7472616374206973206e6f74206960448201526a6e697469616c697a696e6760a81b60648201526084016102f0565b61078e61178c565b816001600160a01b0316836001600160a01b0316036111275760405162461bcd60e51b815260206004820152602960248201527f455243313135353a2073657474696e6720617070726f76616c2073746174757360448201527f20666f722073656c66000000000000000000000000000000000000000000000060648201526084016102f0565b6001600160a01b03838116600081815260666020908152604080832094871680845294825291829020805460ff191686151590811790915591519182527f17307eab39ab6107e8899845ad3d59bd9653f200f220920489ca2b5937696c31910160405180910390a3505050565b6001600160a01b0384166112105760405162461bcd60e51b815260206004820152602560248201527f455243313135353a207472616e7366657220746f20746865207a65726f20616460448201527f647265737300000000000000000000000000000000000000000000000000000060648201526084016102f0565b33600061121c85611572565b9050600061122985611572565b905060008681526065602090815260408083206001600160a01b038c168452909152902054858110156112c45760405162461bcd60e51b815260206004820152602a60248201527f455243313135353a20696e73756666696369656e742062616c616e636520666f60448201527f72207472616e736665720000000000000000000000000000000000000000000060648201526084016102f0565b60008781526065602090815260408083206001600160a01b038d8116855292528083208985039055908a16825281208054889290611303908490611e6a565b909155505060408051888152602081018890526001600160a01b03808b16928c821692918816917fc3d58168c5ae7397731d063d5bbf3d657854427343f4c083240f7aacaa2d0f62910160405180910390a4611363848a8a8a8a8a6115bd565b505050505050505050565b6001600160a01b0384163b15610c98576040517fbc197c810000000000000000000000000000000000000000000000000000000081526001600160a01b0385169063bc197c81906113cb9089908990889088908890600401611fb1565b6020604051808303816000875af1925050508015611406575060408051601f3d908101601f191682019092526114039181019061200f565b60015b6114bb5761141261202c565b806308c379a00361144b5750611426612048565b80611431575061144d565b8060405162461bcd60e51b81526004016102f0919061190d565b505b60405162461bcd60e51b815260206004820152603460248201527f455243313135353a207472616e7366657220746f206e6f6e2d4552433131353560448201527f526563656976657220696d706c656d656e74657200000000000000000000000060648201526084016102f0565b7fffffffff0000000000000000000000000000000000000000000000000000000081167fbc197c810000000000000000000000000000000000000000000000000000000014610f465760405162461bcd60e51b815260206004820152602860248201527f455243313135353a204552433131353552656365697665722072656a6563746560448201527f6420746f6b656e7300000000000000000000000000000000000000000000000060648201526084016102f0565b604080516001808252818301909252606091600091906020808301908036833701905050905082816000815181106115ac576115ac611e24565b602090810291909101015292915050565b6001600160a01b0384163b15610c98576040517ff23a6e610000000000000000000000000000000000000000000000000000000081526001600160a01b0385169063f23a6e619061161a90899089908890889088906004016120f0565b6020604051808303816000875af1925050508015611655575060408051601f3d908101601f191682019092526116529181019061200f565b60015b6116615761141261202c565b7fffffffff0000000000000000000000000000000000000000000000000000000081167ff23a6e610000000000000000000000000000000000000000000000000000000014610f465760405162461bcd60e51b815260206004820152602860248201527f455243313135353a204552433131353552656365697665722072656a6563746560448201527f6420746f6b656e7300000000000000000000000000000000000000000000000060648201526084016102f0565b600054610100900460ff166117835760405162461bcd60e51b815260206004820152602b60248201527f496e697469616c697a61626c653a20636f6e7472616374206973206e6f74206960448201526a6e697469616c697a696e6760a81b60648201526084016102f0565b6108c581611800565b600054610100900460ff166117f75760405162461bcd60e51b815260206004820152602b60248201527f496e697469616c697a61626c653a20636f6e7472616374206973206e6f74206960448201526a6e697469616c697a696e6760a81b60648201526084016102f0565b61078e33610f4f565b60676108d38282611ef1565b80356001600160a01b038116811461182357600080fd5b919050565b6000806040838503121561183b57600080fd5b6118448361180c565b946020939093013593505050565b7fffffffff00000000000000000000000000000000000000000000000000000000811681146108c557600080fd5b60006020828403121561189257600080fd5b813561189d81611852565b9392505050565b6000602082840312156118b657600080fd5b5035919050565b60005b838110156118d85781810151838201526020016118c0565b50506000910152565b600081518084526118f98160208601602086016118bd565b601f01601f19169290920160200192915050565b60208152600061189d60208301846118e1565b634e487b7160e01b600052604160045260246000fd5b601f19601f830116810181811067ffffffffffffffff8211171561195c5761195c611920565b6040525050565b600067ffffffffffffffff82111561197d5761197d611920565b5060051b60200190565b600082601f83011261199857600080fd5b813560206119a582611963565b6040516119b28282611936565b83815260059390931b85018201928281019150868411156119d257600080fd5b8286015b848110156119ed57803583529183019183016119d6565b509695505050505050565b600082601f830112611a0957600080fd5b813567ffffffffffffffff811115611a2357611a23611920565b604051611a3a6020601f19601f8501160182611936565b818152846020838601011115611a4f57600080fd5b816020850160208301376000918101602001919091529392505050565b600080600080600060a08688031215611a8457600080fd5b611a8d8661180c565b9450611a9b6020870161180c565b9350604086013567ffffffffffffffff80821115611ab857600080fd5b611ac489838a01611987565b94506060880135915080821115611ada57600080fd5b611ae689838a01611987565b93506080880135915080821115611afc57600080fd5b50611b09888289016119f8565b9150509295509295909350565b60008060008060808587031215611b2c57600080fd5b84359350602085013567ffffffffffffffff80821115611b4b57600080fd5b611b57888389016119f8565b94506040870135915080821115611b6d57600080fd5b50611b7a878288016119f8565b925050611b896060860161180c565b905092959194509250565b60008060408385031215611ba757600080fd5b823567ffffffffffffffff80821115611bbf57600080fd5b818501915085601f830112611bd357600080fd5b81356020611be082611963565b604051611bed8282611936565b83815260059390931b8501820192828101915089841115611c0d57600080fd5b948201945b83861015611c3257611c238661180c565b82529482019490820190611c12565b96505086013592505080821115611c4857600080fd5b50611c5585828601611987565b9150509250929050565b600081518084526020808501945080840160005b83811015611c8f57815187529582019590820190600101611c73565b509495945050505050565b60208152600061189d6020830184611c5f565b60008060408385031215611cc057600080fd5b611cc98361180c565b915060208301358015158114611cde57600080fd5b809150509250929050565b60008060408385031215611cfc57600080fd5b611d058361180c565b9150611d136020840161180c565b90509250929050565b600080600080600060a08688031215611d3457600080fd5b611d3d8661180c565b9450611d4b6020870161180c565b93506040860135925060608601359150608086013567ffffffffffffffff811115611d7557600080fd5b611b09888289016119f8565b600060208284031215611d9357600080fd5b61189d8261180c565b600181811c90821680611db057607f821691505b602082108103611dd057634e487b7160e01b600052602260045260246000fd5b50919050565b60008251611de88184602087016118bd565b9190910192915050565b838152606060208201526000611e0b60608301856118e1565b90506001600160a01b0383166040830152949350505050565b634e487b7160e01b600052603260045260246000fd5b634e487b7160e01b600052601160045260246000fd5b60006000198203611e6357611e63611e3a565b5060010190565b8082018082111561031e5761031e611e3a565b604081526000611e906040830185611c5f565b8281036020840152611ea28185611c5f565b95945050505050565b601f821115610e0057600081815260208120601f850160051c81016020861015611ed25750805b601f850160051c820191505b81811015610c9857828155600101611ede565b815167ffffffffffffffff811115611f0b57611f0b611920565b611f1f81611f198454611d9c565b84611eab565b602080601f831160018114611f545760008415611f3c5750858301515b600019600386901b1c1916600185901b178555610c98565b600085815260208120601f198616915b82811015611f8357888601518255948401946001909101908401611f64565b5085821015611fa15787850151600019600388901b60f8161c191681555b5050505050600190811b01905550565b60006001600160a01b03808816835280871660208401525060a06040830152611fdd60a0830186611c5f565b8281036060840152611fef8186611c5f565b9050828103608084015261200381856118e1565b98975050505050505050565b60006020828403121561202157600080fd5b815161189d81611852565b600060033d11156120455760046000803e5060005160e01c5b90565b600060443d10156120565790565b6040517ffffffffffffffffffffffffffffffffffffffffffffffffffffffffffffffffc803d016004833e81513d67ffffffffffffffff81602484011181841117156120a457505050505090565b82850191508151818111156120bc5750505050505090565b843d87010160208285010111156120d65750505050505090565b6120e560208286010187611936565b509095945050505050565b60006001600160a01b03808816835280871660208401525084604083015283606083015260a0608083015261212860a08301846118e1565b97965050505050505056fea26469706673582212201302b4c217931100b7410a5bb771dfca405ba8c3c5c00400212ea0d21700b47264736f6c63430008110033",
  "devdoc": {
    "kind": "dev",
    "methods": {
      "balanceOf(address,uint256)": {
        "details": "See {IERC1155-balanceOf}. Requirements: - `account` cannot be the zero address."
      },
      "balanceOfBatch(address[],uint256[])": {
        "details": "See {IERC1155-balanceOfBatch}. Requirements: - `accounts` and `ids` must have the same length."
      },
      "isApprovedForAll(address,address)": {
        "details": "See {IERC1155-isApprovedForAll}."
      },
      "owner()": {
        "details": "Returns the address of the current owner."
      },
      "renounceOwnership()": {
        "details": "Leaves the contract without owner. It will not be possible to call `onlyOwner` functions anymore. Can only be called by the current owner. NOTE: Renouncing ownership will leave the contract without an owner, thereby removing any functionality that is only available to the owner."
      },
      "safeBatchTransferFrom(address,address,uint256[],uint256[],bytes)": {
        "details": "See {IERC1155-safeBatchTransferFrom}."
      },
      "safeTransferFrom(address,address,uint256,uint256,bytes)": {
        "details": "See {IERC1155-safeTransferFrom}."
      },
      "setApprovalForAll(address,bool)": {
        "details": "See {IERC1155-setApprovalForAll}."
      },
      "supportsInterface(bytes4)": {
        "details": "See {IERC165-supportsInterface}."
      },
      "transferOwnership(address)": {
        "details": "Transfers ownership of the contract to a new account (`newOwner`). Can only be called by the current owner."
      }
    },
    "version": 1
  },
  "userdoc": {
    "kind": "user",
    "methods": {},
    "version": 1
  },
  "storageLayout": {
    "storage": [
      {
        "astId": 138,
        "contract": "src/INFTFYToken.sol:INFTFYToken",
        "label": "_initialized",
        "offset": 0,
        "slot": "0",
        "type": "t_uint8"
      },
      {
        "astId": 141,
        "contract": "src/INFTFYToken.sol:INFTFYToken",
        "label": "_initializing",
        "offset": 1,
        "slot": "0",
        "type": "t_bool"
      },
      {
        "astId": 2048,
        "contract": "src/INFTFYToken.sol:INFTFYToken",
        "label": "__gap",
        "offset": 0,
        "slot": "1",
        "type": "t_array(t_uint256)50_storage"
      },
      {
        "astId": 2166,
        "contract": "src/INFTFYToken.sol:INFTFYToken",
        "label": "__gap",
        "offset": 0,
        "slot": "51",
        "type": "t_array(t_uint256)50_storage"
      },
      {
        "astId": 329,
        "contract": "src/INFTFYToken.sol:INFTFYToken",
        "label": "_balances",
        "offset": 0,
        "slot": "101",
        "type": "t_mapping(t_uint256,t_mapping(t_address,t_uint256))"
      },
      {
        "astId": 335,
        "contract": "src/INFTFYToken.sol:INFTFYToken",
        "label": "_operatorApprovals",
        "offset": 0,
        "slot": "102",
        "type": "t_mapping(t_address,t_mapping(t_address,t_bool))"
      },
      {
        "astId": 337,
        "contract": "src/INFTFYToken.sol:INFTFYToken",
        "label": "_uri",
        "offset": 0,
        "slot": "103",
        "type": "t_string_storage"
      },
      {
        "astId": 1544,
        "contract": "src/INFTFYToken.sol:INFTFYToken",
        "label": "__gap",
        "offset": 0,
        "slot": "104",
        "type": "t_array(t_uint256)47_storage"
      },
      {
        "astId": 10,
        "contract": "src/INFTFYToken.sol:INFTFYToken",
        "label": "_owner",
        "offset": 0,
        "slot": "151",
        "type": "t_address"
      },
      {
        "astId": 130,
        "contract": "src/INFTFYToken.sol:INFTFYToken",
        "label": "__gap",
        "offset": 0,
        "slot": "152",
        "type": "t_array(t_uint256)49_storage"
      },
      {
        "astId": 2198,
        "contract": "src/INFTFYToken.sol:INFTFYToken",
        "label": "_tokenIds",
        "offset": 0,
        "slot": "201",
        "type": "t_struct(Counter)2055_storage"
      },
      {
        "astId": 2216,
        "contract": "src/INFTFYToken.sol:INFTFYToken",
        "label": "creator",
        "offset": 0,
        "slot": "202",
        "type": "t_mapping(t_uint256,t_address)"
      },
      {
        "astId": 2220,
        "contract": "src/INFTFYToken.sol:INFTFYToken",
        "label": "_tokenURIs",
        "offset": 0,
        "slot": "203",
        "type": "t_mapping(t_uint256,t_string_storage)"
      }
    ],
    "types": {
      "t_address": {
        "encoding": "inplace",
        "label": "address",
        "numberOfBytes": "20"
      },
      "t_array(t_uint256)47_storage": {
        "base": "t_uint256",
        "encoding": "inplace",
        "label": "uint256[47]",
        "numberOfBytes": "1504"
      },
      "t_array(t_uint256)49_storage": {
        "base": "t_uint256",
        "encoding": "inplace",
        "label": "uint256[49]",
        "numberOfBytes": "1568"
      },
      "t_array(t_uint256)50_storage": {
        "base": "t_uint256",
        "encoding": "inplace",
        "label": "uint256[50]",
        "numberOfBytes": "1600"
      },
      "t_bool": {
        "encoding": "inplace",
        "label": "bool",
        "numberOfBytes": "1"
      },
      "t_mapping(t_address,t_bool)": {
        "encoding": "mapping",
        "key": "t_address",
        "label": "mapping(address => bool)",
        "numberOfBytes": "32",
        "value": "t_bool"
      },
      "t_mapping(t_address,t_mapping(t_address,t_bool))": {
        "encoding": "mapping",
        "key": "t_address",
        "label": "mapping(address => mapping(address => bool))",
        "numberOfBytes": "32",
        "value": "t_mapping(t_address,t_bool)"
      },
      "t_mapping(t_address,t_uint256)": {
        "encoding": "mapping",
        "key": "t_address",
        "label": "mapping(address => uint256)",
        "numberOfBytes": "32",
        "value": "t_uint256"
      },
      "t_mapping(t_uint256,t_address)": {
        "encoding": "mapping",
        "key": "t_uint256",
        "label": "mapping(uint256 => address)",
        "numberOfBytes": "32",
        "value": "t_address"
      },
      "t_mapping(t_uint256,t_mapping(t_address,t_uint256))": {
        "encoding": "mapping",
        "key": "t_uint256",
        "label": "mapping(uint256 => mapping(address => uint256))",
        "numberOfBytes": "32",
        "value": "t_mapping(t_address,t_uint256)"
      },
      "t_mapping(t_uint256,t_string_storage)": {
        "encoding": "mapping",
        "key": "t_uint256",
        "label": "mapping(uint256 => string)",
        "numberOfBytes": "32",
        "value": "t_string_storage"
      },
      "t_string_storage": {
        "encoding": "bytes",
        "label": "string",
        "numberOfBytes": "32"
      },
      "t_struct(Counter)2055_storage": {
        "encoding": "inplace",
        "label": "struct CountersUpgradeable.Counter",
        "members": [
          {
            "astId": 2054,
            "contract": "src/INFTFYToken.sol:INFTFYToken",
            "label": "_value",
            "offset": 0,
            "slot": "0",
            "type": "t_uint256"
          }
        ],
        "numberOfBytes": "32"
      },
      "t_uint256": {
        "encoding": "inplace",
        "label": "uint256",
        "numberOfBytes": "32"
      },
      "t_uint8": {
        "encoding": "inplace",
        "label": "uint8",
        "numberOfBytes": "1"
      }
    }
  }
}